{
  "_format": "hh-sol-artifact-1",
  "contractName": "SocietyDAO",
  "sourceName": "contracts/SocietyDAO.sol",
  "abi": [
    {
      "inputs": [
        {
          "internalType": "uint256",
          "name": "_monthlyFee",
          "type": "uint256"
        },
        {
          "internalType": "uint256",
          "name": "_penaltyRate",
          "type": "uint256"
        }
      ],
      "stateMutability": "nonpayable",
      "type": "constructor"
    },
    {
      "anonymous": false,
      "inputs": [
        {
          "indexed": true,
          "internalType": "address",
          "name": "user",
          "type": "address"
        },
        {
          "indexed": false,
          "internalType": "uint256",
          "name": "amount",
          "type": "uint256"
        }
      ],
      "name": "MaintenancePaid",
      "type": "event"
    },
    {
      "anonymous": false,
      "inputs": [
        {
          "indexed": true,
          "internalType": "uint256",
          "name": "proposalId",
          "type": "uint256"
        }
      ],
      "name": "ProposalCreated",
      "type": "event"
    },
    {
      "anonymous": false,
      "inputs": [
        {
          "indexed": true,
          "internalType": "uint256",
          "name": "proposalId",
          "type": "uint256"
        }
      ],
      "name": "ProposalExecuted",
      "type": "event"
    },
    {
      "anonymous": false,
      "inputs": [
        {
          "indexed": true,
          "internalType": "address",
          "name": "voter",
          "type": "address"
        },
        {
          "indexed": true,
          "internalType": "uint256",
          "name": "proposalId",
          "type": "uint256"
        },
        {
          "indexed": false,
          "internalType": "bool",
          "name": "support",
          "type": "bool"
        }
      ],
      "name": "VoteCast",
      "type": "event"
    },
    {
      "inputs": [
        {
          "internalType": "uint256",
          "name": "amount",
          "type": "uint256"
        },
        {
          "internalType": "address",
          "name": "recipient",
          "type": "address"
        },
        {
          "internalType": "uint256",
          "name": "deadline",
          "type": "uint256"
        }
      ],
      "name": "createProposal",
      "outputs": [
        {
          "internalType": "uint256",
          "name": "",
          "type": "uint256"
        }
      ],
      "stateMutability": "nonpayable",
      "type": "function"
    },
    {
      "inputs": [
        {
          "internalType": "uint256",
          "name": "proposalId",
          "type": "uint256"
        }
      ],
      "name": "executeProposal",
      "outputs": [],
      "stateMutability": "nonpayable",
      "type": "function"
    },
    {
      "inputs": [],
      "name": "getBalance",
      "outputs": [
        {
          "internalType": "uint256",
          "name": "",
          "type": "uint256"
        }
      ],
      "stateMutability": "view",
      "type": "function"
    },
    {
      "inputs": [
        {
          "internalType": "address",
          "name": "user",
          "type": "address"
        }
      ],
      "name": "getPaymentStatus",
      "outputs": [
        {
          "internalType": "bool",
          "name": "paid",
          "type": "bool"
        },
        {
          "internalType": "uint256",
          "name": "amount",
          "type": "uint256"
        },
        {
          "internalType": "uint256",
          "name": "timestamp",
          "type": "uint256"
        }
      ],
      "stateMutability": "view",
      "type": "function"
    },
    {
      "inputs": [
        {
          "internalType": "uint256",
          "name": "id",
          "type": "uint256"
        }
      ],
      "name": "getProposal",
      "outputs": [
        {
          "internalType": "uint256",
          "name": "amount",
          "type": "uint256"
        },
        {
          "internalType": "address",
          "name": "recipient",
          "type": "address"
        },
        {
          "internalType": "uint256",
          "name": "deadline",
          "type": "uint256"
        },
        {
          "internalType": "bool",
          "name": "executed",
          "type": "bool"
        },
        {
          "internalType": "uint256",
          "name": "votesFor",
          "type": "uint256"
        },
        {
          "internalType": "uint256",
          "name": "votesAgainst",
          "type": "uint256"
        }
      ],
      "stateMutability": "view",
      "type": "function"
    },
    {
      "inputs": [
        {
          "internalType": "uint256",
          "name": "proposalId",
          "type": "uint256"
        },
        {
          "internalType": "address",
          "name": "voter",
          "type": "address"
        }
      ],
      "name": "hasVoted",
      "outputs": [
        {
          "internalType": "bool",
          "name": "",
          "type": "bool"
        }
      ],
      "stateMutability": "view",
      "type": "function"
    },
    {
      "inputs": [],
      "name": "monthlyFee",
      "outputs": [
        {
          "internalType": "uint256",
          "name": "",
          "type": "uint256"
        }
      ],
      "stateMutability": "view",
      "type": "function"
    },
    {
      "inputs": [],
      "name": "payMaintenance",
      "outputs": [],
      "stateMutability": "payable",
      "type": "function"
    },
    {
      "inputs": [],
      "name": "penaltyRate",
      "outputs": [
        {
          "internalType": "uint256",
          "name": "",
          "type": "uint256"
        }
      ],
      "stateMutability": "view",
      "type": "function"
    },
    {
      "inputs": [],
      "name": "proposalCount",
      "outputs": [
        {
          "internalType": "uint256",
          "name": "",
          "type": "uint256"
        }
      ],
      "stateMutability": "view",
      "type": "function"
    },
    {
      "inputs": [
        {
          "internalType": "uint256",
          "name": "proposalId",
          "type": "uint256"
        },
        {
          "internalType": "bool",
          "name": "support",
          "type": "bool"
        }
      ],
      "name": "vote",
      "outputs": [],
      "stateMutability": "nonpayable",
      "type": "function"
    }
  ],
  "bytecode": "0x608060405234801561001057600080fd5b506040516119ab3803806119ab833981810160405281019061003291906100c5565b60008211610075576040517f08c379a000000000000000000000000000000000000000000000000000000000815260040161006c90610162565b60405180910390fd5b81600081905550806001819055505050610182565b600080fd5b6000819050919050565b6100a28161008f565b81146100ad57600080fd5b50565b6000815190506100bf81610099565b92915050565b600080604083850312156100dc576100db61008a565b5b60006100ea858286016100b0565b92505060206100fb858286016100b0565b9150509250929050565b600082825260208201905092915050565b7f4d6f6e74686c7920666565206d757374206265203e2030000000000000000000600082015250565b600061014c601783610105565b915061015782610116565b602082019050919050565b6000602082019050818103600083015261017b8161013f565b9050919050565b61181a806101916000396000f3fe60806040526004361061009c5760003560e01c80638cfd3e40116100645780638cfd3e401461017b578063b95a9287146101a6578063c7f758a8146101e3578063c9d27afe14610225578063d6b7494f1461024e578063da35c664146102795761009c565b80630d61b519146100a157806312065fe0146100ca57806343859632146100f55780635bda544d14610132578063888b22841461013c575b600080fd5b3480156100ad57600080fd5b506100c860048036038101906100c39190610f5c565b6102a4565b005b3480156100d657600080fd5b506100df61059a565b6040516100ec9190610f98565b60405180910390f35b34801561010157600080fd5b5061011c60048036038101906101179190611011565b6105a2565b604051610129919061106c565b60405180910390f35b61013a61060a565b005b34801561014857600080fd5b50610163600480360381019061015e9190611087565b610732565b604051610172939291906110b4565b60405180910390f35b34801561018757600080fd5b506101906107d0565b60405161019d9190610f98565b60405180910390f35b3480156101b257600080fd5b506101cd60048036038101906101c891906110eb565b6107d6565b6040516101da9190610f98565b60405180910390f35b3480156101ef57600080fd5b5061020a60048036038101906102059190610f5c565b610a72565b60405161021c9695949392919061114d565b60405180910390f35b34801561023157600080fd5b5061024c600480360381019061024791906111da565b610c33565b005b34801561025a57600080fd5b50610263610f15565b6040516102709190610f98565b60405180910390f35b34801561028557600080fd5b5061028e610f1b565b60405161029b9190610f98565b60405180910390f35b6000600360008381526020019081526020016000209050600073ffffffffffffffffffffffffffffffffffffffff168160010160009054906101000a900473ffffffffffffffffffffffffffffffffffffffff1673ffffffffffffffffffffffffffffffffffffffff160361034e576040517f08c379a000000000000000000000000000000000000000000000000000000000815260040161034590611277565b60405180910390fd5b80600201544211610394576040517f08c379a000000000000000000000000000000000000000000000000000000000815260040161038b906112e3565b60405180910390fd5b8060030160009054906101000a900460ff16156103e6576040517f08c379a00000000000000000000000000000000000000000000000000000000081526004016103dd9061134f565b60405180910390fd5b8060050154816004015411610430576040517f08c379a0000000000000000000000000000000000000000000000000000000008152600401610427906113bb565b60405180910390fd5b8060000154471015610477576040517f08c379a000000000000000000000000000000000000000000000000000000000815260040161046e90611427565b60405180910390fd5b60018160030160006101000a81548160ff02191690831515021790555060008160010160009054906101000a900473ffffffffffffffffffffffffffffffffffffffff1673ffffffffffffffffffffffffffffffffffffffff1682600001546040516104e290611478565b60006040518083038185875af1925050503d806000811461051f576040519150601f19603f3d011682016040523d82523d6000602084013e610524565b606091505b5050905080610568576040517f08c379a000000000000000000000000000000000000000000000000000000000815260040161055f906114d9565b60405180910390fd5b827f712ae1383f79ac853f8d882153778e0260ef8f03b504e2866e0593e04d2b291f60405160405180910390a2505050565b600047905090565b60006004600084815260200190815260200160002060008373ffffffffffffffffffffffffffffffffffffffff1673ffffffffffffffffffffffffffffffffffffffff16815260200190815260200160002060009054906101000a900460ff16905092915050565b60005434101561064f576040517f08c379a000000000000000000000000000000000000000000000000000000000815260040161064690611545565b60405180910390fd5b604051806060016040528060011515815260200134815260200142815250600560003373ffffffffffffffffffffffffffffffffffffffff1673ffffffffffffffffffffffffffffffffffffffff16815260200190815260200160002060008201518160000160006101000a81548160ff02191690831515021790555060208201518160010155604082015181600201559050503373ffffffffffffffffffffffffffffffffffffffff167e507b6f789af89c9b36276101b573dbcd2ab482d36c549049060ab4bf7e4ab4346040516107289190610f98565b60405180910390a2565b600080600080600560008673ffffffffffffffffffffffffffffffffffffffff1673ffffffffffffffffffffffffffffffffffffffff1681526020019081526020016000206040518060600160405290816000820160009054906101000a900460ff16151515158152602001600182015481526020016002820154815250509050806000015181602001518260400151935093509350509193909250565b60005481565b60008073ffffffffffffffffffffffffffffffffffffffff168373ffffffffffffffffffffffffffffffffffffffff1603610846576040517f08c379a000000000000000000000000000000000000000000000000000000000815260040161083d906115b1565b60405180910390fd5b60008411610889576040517f08c379a00000000000000000000000000000000000000000000000000000000081526004016108809061161d565b60405180910390fd5b4282116108cb576040517f08c379a00000000000000000000000000000000000000000000000000000000081526004016108c290611689565b60405180910390fd5b6001600260008282546108de91906116d8565b925050819055506040518060e001604052808581526020018473ffffffffffffffffffffffffffffffffffffffff16815260200183815260200160001515815260200160008152602001600081526020013373ffffffffffffffffffffffffffffffffffffffff168152506003600060025481526020019081526020016000206000820151816000015560208201518160010160006101000a81548173ffffffffffffffffffffffffffffffffffffffff021916908373ffffffffffffffffffffffffffffffffffffffff1602179055506040820151816002015560608201518160030160006101000a81548160ff0219169083151502179055506080820151816004015560a0820151816005015560c08201518160060160006101000a81548173ffffffffffffffffffffffffffffffffffffffff021916908373ffffffffffffffffffffffffffffffffffffffff1602179055509050506002547fc2c021f5d73c63c481d336fbbafec58f694fc45095f00b02d2deb8cca59afe0760405160405180910390a260025490509392505050565b6000806000806000806000600360008981526020019081526020016000206040518060e0016040529081600082015481526020016001820160009054906101000a900473ffffffffffffffffffffffffffffffffffffffff1673ffffffffffffffffffffffffffffffffffffffff1673ffffffffffffffffffffffffffffffffffffffff168152602001600282015481526020016003820160009054906101000a900460ff1615151515815260200160048201548152602001600582015481526020016006820160009054906101000a900473ffffffffffffffffffffffffffffffffffffffff1673ffffffffffffffffffffffffffffffffffffffff1673ffffffffffffffffffffffffffffffffffffffff16815250509050600073ffffffffffffffffffffffffffffffffffffffff16816020015173ffffffffffffffffffffffffffffffffffffffff1603610bff576040517f08c379a0000000000000000000000000000000000000000000000000000000008152600401610bf690611277565b60405180910390fd5b806000015181602001518260400151836060015184608001518560a001519650965096509650965096505091939550919395565b6000600360008481526020019081526020016000209050600073ffffffffffffffffffffffffffffffffffffffff168160010160009054906101000a900473ffffffffffffffffffffffffffffffffffffffff1673ffffffffffffffffffffffffffffffffffffffff1603610cdd576040517f08c379a0000000000000000000000000000000000000000000000000000000008152600401610cd490611277565b60405180910390fd5b8060020154421115610d24576040517f08c379a0000000000000000000000000000000000000000000000000000000008152600401610d1b90611758565b60405180910390fd5b8060030160009054906101000a900460ff1615610d76576040517f08c379a0000000000000000000000000000000000000000000000000000000008152600401610d6d9061134f565b60405180910390fd5b6004600084815260200190815260200160002060003373ffffffffffffffffffffffffffffffffffffffff1673ffffffffffffffffffffffffffffffffffffffff16815260200190815260200160002060009054906101000a900460ff1615610e14576040517f08c379a0000000000000000000000000000000000000000000000000000000008152600401610e0b906117c4565b60405180910390fd5b60016004600085815260200190815260200160002060003373ffffffffffffffffffffffffffffffffffffffff1673ffffffffffffffffffffffffffffffffffffffff16815260200190815260200160002060006101000a81548160ff0219169083151502179055508115610ea4576001816004016000828254610e9891906116d8565b92505081905550610ec1565b6001816005016000828254610eb991906116d8565b925050819055505b823373ffffffffffffffffffffffffffffffffffffffff167fd356173ae8eeea8691aee4c1be712c314a975a3d43ebc48b08ca54d0dac9122884604051610f08919061106c565b60405180910390a3505050565b60015481565b60025481565b600080fd5b6000819050919050565b610f3981610f26565b8114610f4457600080fd5b50565b600081359050610f5681610f30565b92915050565b600060208284031215610f7257610f71610f21565b5b6000610f8084828501610f47565b91505092915050565b610f9281610f26565b82525050565b6000602082019050610fad6000830184610f89565b92915050565b600073ffffffffffffffffffffffffffffffffffffffff82169050919050565b6000610fde82610fb3565b9050919050565b610fee81610fd3565b8114610ff957600080fd5b50565b60008135905061100b81610fe5565b92915050565b6000806040838503121561102857611027610f21565b5b600061103685828601610f47565b925050602061104785828601610ffc565b9150509250929050565b60008115159050919050565b61106681611051565b82525050565b6000602082019050611081600083018461105d565b92915050565b60006020828403121561109d5761109c610f21565b5b60006110ab84828501610ffc565b91505092915050565b60006060820190506110c9600083018661105d565b6110d66020830185610f89565b6110e36040830184610f89565b949350505050565b60008060006060848603121561110457611103610f21565b5b600061111286828701610f47565b935050602061112386828701610ffc565b925050604061113486828701610f47565b9150509250925092565b61114781610fd3565b82525050565b600060c0820190506111626000830189610f89565b61116f602083018861113e565b61117c6040830187610f89565b611189606083018661105d565b6111966080830185610f89565b6111a360a0830184610f89565b979650505050505050565b6111b781611051565b81146111c257600080fd5b50565b6000813590506111d4816111ae565b92915050565b600080604083850312156111f1576111f0610f21565b5b60006111ff85828601610f47565b9250506020611210858286016111c5565b9150509250929050565b600082825260208201905092915050565b7f50726f706f73616c206e6f7420666f756e640000000000000000000000000000600082015250565b600061126160128361121a565b915061126c8261122b565b602082019050919050565b6000602082019050818103600083015261129081611254565b9050919050565b7f566f74696e67207374696c6c2061637469766500000000000000000000000000600082015250565b60006112cd60138361121a565b91506112d882611297565b602082019050919050565b600060208201905081810360008301526112fc816112c0565b9050919050565b7f416c726561647920657865637574656400000000000000000000000000000000600082015250565b600061133960108361121a565b915061134482611303565b602082019050919050565b600060208201905081810360008301526113688161132c565b9050919050565b7f50726f706f73616c2072656a6563746564000000000000000000000000000000600082015250565b60006113a560118361121a565b91506113b08261136f565b602082019050919050565b600060208201905081810360008301526113d481611398565b9050919050565b7f496e73756666696369656e742074726561737572790000000000000000000000600082015250565b600061141160158361121a565b915061141c826113db565b602082019050919050565b6000602082019050818103600083015261144081611404565b9050919050565b600081905092915050565b50565b6000611462600083611447565b915061146d82611452565b600082019050919050565b600061148382611455565b9150819050919050565b7f5472616e73666572206661696c65640000000000000000000000000000000000600082015250565b60006114c3600f8361121a565b91506114ce8261148d565b602082019050919050565b600060208201905081810360008301526114f2816114b6565b9050919050565b7f496e73756666696369656e74207061796d656e74000000000000000000000000600082015250565b600061152f60148361121a565b915061153a826114f9565b602082019050919050565b6000602082019050818103600083015261155e81611522565b9050919050565b7f496e76616c696420726563697069656e74000000000000000000000000000000600082015250565b600061159b60118361121a565b91506115a682611565565b602082019050919050565b600060208201905081810360008301526115ca8161158e565b9050919050565b7f416d6f756e74206d757374206265203e20300000000000000000000000000000600082015250565b600061160760128361121a565b9150611612826115d1565b602082019050919050565b60006020820190508181036000830152611636816115fa565b9050919050565b7f446561646c696e65206d75737420626520696e20667574757265000000000000600082015250565b6000611673601a8361121a565b915061167e8261163d565b602082019050919050565b600060208201905081810360008301526116a281611666565b9050919050565b7f4e487b7100000000000000000000000000000000000000000000000000000000600052601160045260246000fd5b60006116e382610f26565b91506116ee83610f26565b9250828201905080821115611706576117056116a9565b5b92915050565b7f566f74696e6720656e6465640000000000000000000000000000000000000000600082015250565b6000611742600c8361121a565b915061174d8261170c565b602082019050919050565b6000602082019050818103600083015261177181611735565b9050919050565b7f416c726561647920766f74656400000000000000000000000000000000000000600082015250565b60006117ae600d8361121a565b91506117b982611778565b602082019050919050565b600060208201905081810360008301526117dd816117a1565b905091905056fea264697066735822122092ec8ab91baf30b6605c6728de17af70575d4e5a9900e88cee0a420c10476d6864736f6c634300081c0033",
  "linkReferences": {},
  "deployedLinkReferences": {}
}